:100000000C9453000C9448020C9448020C9448023F
:100010000C94E7000C9448020C9448020C9448029B
:100020000C9448020C9448020C9448020C94480228
:100030000C9448020C9448020C9448020C94480218
:100040000C9448020C9448020C9448020C94480208
:100050000C9448020C9448020C9448020C944802F8
:100060000C9448020C9448020C9448020C944802E8
:100070000C9448020C9448020C9448020C944802D8
:100080000C9448020C9448020C9448020C944802C8
:100090000C9448020C9448020C9448020C944802B8
:1000A0002800280C800011241FBECFEFCDBFDFE356
:1000B000DEBFE0EAF0E040E017C0B591A5913591D0
:1000C0002591059107FD0CC095918591EF01F92FC0
:1000D000E82F05900D92A217B307D9F7FE0104C0CF
:1000E0001D92A217B307E1F7E53AF40731F70E9432
:0A00F0007D000C947B00F894FFCF14
:1000FA000E94AA010E947D010E94C70181E08093AB
:10010A000806E0E4F1E082898160828B8089886157
:10011A00808B80898E7F808BE0E5F0E08081897F0B
:10012A00808378941CE3C0910028D0910128209103
:10013A000428309105282831314009F4219620916C
:10014A000228309103282115384089F7C0930028E6
:10015A00D093012810920228109203280E941A02B2
:10016A0080E80E9423018EE794E40E940B02CE01EC
:10017A00969587959C01129FC001139F900D11249B
:10018A000E943102EC0184E80E942301CE010E9400
:10019A000B0280EC0E94230183E894E40E940B0284
:1001AA0080910428909105280E943102EC0184EC88
:1001BA000E942301CE010E940B0210920028109285
:0401CA000128B1CF88
:1001CE001F920F920FB60F9211242F933F934F93BE
:1001DE005F936F937F938F939F93AF93BF93EF93A1
:1001EE00FF9381E080935301809102289091032820
:1001FE00019680930228909303280E94440288233C
:10020E0051F0E0E0F6E081E0838780899189809368
:10021E00042890930528FF91EF91BF91AF919F9184
:10022E008F917F916F915F914F913F912F910F9091
:08023E000FBE0F901F901895F0
:10024600E4E4F4E090819F70282F207F922B908326
:1002560090819D7F908390819160908300C000C0C3
:1002660090819E7F90833EED3A95F1F700002081C4
:100276002F7030E1839FC0011124822B80838081FF
:100286008160808300C000C080818E7F808382E889
:0A02960096E00197F1F700C008950B
:1002A000E4E4F4E090819F70282F207F922B9083CC
:1002B00090819260908390819160908300C000C093
:1002C00090819E7F90833EED3A95F1F7000020816A
:1002D0002F7030E1839FC0011124822B80838081A5
:1002E0008160808300C000C080818E7F808382E82F
:0A02F00096E00197F1F700C00895B1
:1002FA00CF93DF9360917C006E7F8CE790E00E9441
:10030A003902E0E6F0E0838186FDFDCFC0E6D0E069
:10031A006C8D6B7F8CE790E00E9439026C8D616076
:10032A008CE790E00E943902E0E4F1E081818111DA
:10033A00FDCFE0E4F1E082E0878381E08583828B70
:0A034A0089E1808BDF91CF910895C7
:100354008FEF809340048AE191E40197F1F700C0A4
:1003640082E00E94230188E20E9423018CE00E9423
:10037400230186E00E94230181E00E94230182E898
:0A03840096E00197F1F700C008951C
:10038E00E0E8F4E08089887F808B80898460808BB0
:10039E008089877F808B80E28093A000E0E0F6E08A
:1003AE0083E0828381E0808388E08683808182601F
:0403BE00808308959B
:1003C200BB27FB015527AA27880F991FAA1FA4172D
:1003D20010F0A41B83955051B9F7A05DAA3308F021
:1003E200A95DA193009779F7B111B1931192CB0155
:0403F2000C94FB016B
:1003F600DC01FC01672F71917723E1F7329704C086
:100406007C916D9370836291AE17BF07C8F3089510
:10041600CF93DF93EC018881882331F021960E94E7
:0E042600500189918111FBCFDF91CF91089594
:1004340081E00E94230182E896E00197F1F700C071
:0804440080E80E9423010895E5
:10044C00BB274A3031F4992322F4BDE29095819573
:06045C009F4F0C94E20129
:100462004AE066E078E20E94260286E098E2089579
:0C047200DC0128ED209334006C93089509
:0A047E0052504D3A004144435F0024
:0804880080910B0681700895BC
:040490000C940000C8
:00000001FF
