:100000000C9459000C942C030C942C030C942C038A
:100010000C94AD010C942C030C942C030C942C0325
:100020000C942C030C942C030C942C030C942C0394
:100030000C942C030C942C030C942C030C942C0384
:100040000C942C030C942C030C942C030C942C0374
:100050000C942C030C942C030C942C030C942C0364
:100060000C942C030C942C030C942C030C942C0354
:100070000C942C030C9461010C942C030C942C0311
:100080000C942C030C942C030C942C030C942C0334
:100090000C942C030C942C030C942C030C942C0324
:1000A0002800280C80280C280E00065C280E280F3B
:1000B000800011241FBECFEFCDBFDFE3DEBFE0EA3B
:1000C000F0E040E017C0B591A591359125910591DB
:1000D00007FD0CC095918591EF01F92FE82F059050
:1000E0000D92A217B307D9F7FE0104C01D92A21703
:1000F000B307E1F7E13BF40731F70E9483000C946A
:060100008100F894FFCF1E
:100106000E947E020E9451020E949B0281E080931F
:100116000806E0E4F1E082898160828B808988614B
:10012600808B80898E7F808BE0EAF4E080E4828396
:1001360083E0868BE0E5F0E08081897F8083789498
:100146000F2EEE24EA94F3E0FF2EF02D00E010E0EF
:10015600C0E5D0E06894CC24C6F8DD24D3940F2EF5
:10016600FCE37F2EF02D88248A940F2EF3E09F2E39
:10017600F02D888181608883889588818E7F888329
:10018600209104283091052880910C2890910D2803
:100196002817390749F48091002890910128019683
:1001A6008093002890930128F601808980FF50C033
:1001B60080910228909103288115984009F048C043
:1001C6001092022810920328A0900028B0900128CF
:1001D6000E94030380E80E94F7018EEB95E40E94DB
:1001E600F402C501969587959C01729EC001739E87
:1001F600900D11240E941A035C0184E80E94F70105
:10020600C5010E94F40280EC0E94F70183EC95E49C
:100216000E94F40280910428909105280E941A03F6
:100226005C0184EC0E94F701C5010E94F4028091F2
:100236000C2890910D280E941A035C018AEC0E94FA
:10024600F701C5010E94F4021092002810920128BD
:1002560080910E28882309F48CCF809104289091F0
:1002660005280817190720F400910428109105287D
:1002760080910428909105288E159F0520F4E09022
:100286000428F09005288091022890910328811572
:10029600924009F06ECF10920228109203280E0D9C
:1002A6001F1D1695079500930C2810930D28109284
:0C02B6000E28E82CF92C00E010E05BCFD3
:1002C2001F920F920FB60F9211242F933F934F93C9
:1002D2005F936F937F938F939F93AF93BF93EF93AC
:1002E200FF93E0EAF4E0818581878091500180FFED
:1002F20016C0E0E4F1E080898E7F808B0E940303C8
:1003020080E80E94F7018EE995E40E94F40280ECF5
:100312000E94F7018FEA95E40E94F4020CC081E08A
:1003220080930E281092022810920328E0E4F1E054
:1003320080898160808BFF91EF91BF91AF919F91F6
:100342008F917F916F915F914F913F912F910F907C
:080352000FBE0F901F901895DB
:10035A001F920F920FB60F9211242F933F934F9330
:10036A005F936F937F938F939F93AF93BF93EF9313
:10037A00FF9381E0809353010E942803882309F1A7
:10038A00E0E0F6E081E08387808991898093042800
:10039A009093052880910E2881110AC08091022825
:1003AA00909103280196809302289093032809C00C
:1003BA0080910228909103280196809302289093B5
:1003CA000328FF91EF91BF91AF919F918F917F91F8
:1003DA006F915F914F913F912F910F900FBE0F90A8
:0403EA001F901895B3
:1003EE00E4E4F4E090819F70282F207F922B90837D
:1003FE0090819D7F908390819160908300C000C01A
:10040E0090819E7F90833EED3A95F1F7000020811A
:10041E002F7030E1839FC0011124822B8083808155
:10042E008160808300C000C080818E7F808382E8DF
:0A043E0096E00197F1F700C0089561
:10044800E4E4F4E090819F70282F207F922B908322
:1004580090819260908390819160908300C000C0E9
:1004680090819E7F90833EED3A95F1F700002081C0
:100478002F7030E1839FC0011124822B80838081FB
:100488008160808300C000C080818E7F808382E885
:0A04980096E00197F1F700C0089507
:1004A200CF93DF9360917C006E7F8CE790E00E9497
:1004B2002203E0E6F0E0838186FDFDCFC0E6D0E0D6
:1004C2006C8D6B7F8CE790E00E9422036C8D6160E3
:1004D2008CE790E00E942203E0E4F1E08181811147
:1004E200FDCFE0E4F1E082E0878381E08583828BC7
:0A04F20089E1808BDF91CF9108951E
:1004FC008FEF809340048AE191E40197F1F700C0FB
:10050C0082E00E94F70188E20E94F7018CE00E94D1
:10051C00F70186E00E94F70181E00E94F70182E872
:0A052C0096E00197F1F700C0089572
:10053600E0E8F4E08089887F808B80898460808B06
:100546008089877F808B80E28093A000E0E0F6E0E0
:1005560083E0828381E0808388E086838081826075
:0405660080830895F1
:10056A00BB27FB015527AA27880F991FAA1FA41783
:10057A0010F0A41B83955051B9F7A05DAA3308F077
:10058A00A95DA193009779F7B111B1931192CB01AB
:04059A000C94E402D7
:10059E004F6E65436C69636B4F7074696D697A65F4
:1005AE0000507265737320746F20737461727400DF
:0A05BE0052504D3A004144433A0008
:1005C800DC01FC01672F71917723E1F7329704C0B2
:1005D8007C916D9370836291AE17BF07C8F308953D
:1005E800CF93DF93EC018881882331F021960E9414
:0E05F800240289918111FBCFDF91CF910895EC
:1006060081E00E94F70182E896E00197F1F700C0C9
:0806160080E80E94F70108953D
:10061E00BB274A3031F4992322F4BDE2909581959F
:06062E009F4F0C94B60280
:100634004AE066E078E20E940F0386E098E20895BB
:0C064400DC0128ED209334006C93089535
:0806500080910B0681700895F2
:040658000C940000FE
:02065C00270174
:00000001FF
