:100000000C9459000C940D030C940D030C940D03E7
:100010000C9472010C940D030C940D030C940D03BD
:100020000C940D030C940D030C940D030C940D0310
:100030000C940D030C940D030C940D030C940D0300
:100040000C940D030C940D030C940D030C940D03F0
:100050000C940D030C940D030C940D030C940D03E0
:100060000C940D030C940D030C940D030C940D03D0
:100070000C940D030C9435020C940D030C940D0399
:100080000C940D030C940D030C940D030C940D03B0
:100090000C940D030C940D030C940D030C940D03A0
:1000A0002800280C80280C280E00061E280E280F79
:1000B000800011241FBECFEFCDBFDFE3DEBFE0EA3B
:1000C000F0E040E017C0B591A591359125910591DB
:1000D00007FD0CC095918591EF01F92FE82F059050
:1000E0000D92A217B307D9F7FE0104C01D92A21703
:1000F000B307E1F7E13BF40731F70E9483000C946A
:060100008100F894FFCF1E
:100106000E945F020E9408020E947C0281E08093A6
:100116000806E0E4F1E082898160828B808988614B
:10012600808B80898E7F808BE0EAF4E080E4828396
:1001360083E0868BE0E5F0E08081897F8083789498
:100146000F2EEE24EA94F3E0FF2EF02DC12CD12CD5
:10015600C0E5D0E000E411E00F2EFCE37F2EF02D89
:1001660088248A940F2EF3E09F2EF02D88818160DB
:100176008883889588818E7F888320910428309192
:10018600052880910C2890910D282817390749F4E5
:1001960080910028909101280196809300289093E1
:1001A6000128F801808980FF50C080910228909133
:1001B60003288115984009F048C010920228109231
:1001C6000328A0900028B09001280E94E40280E84D
:1001D6000E94AE0180E695E40E94D502C50196957F
:1001E60087959C01729EC001739E900D11240E94FA
:1001F600FB025C0184E80E94AE01C5010E94D502A3
:1002060080EC0E94AE0185E695E40E94D5028091BD
:100216000428909105280E94FB025C0184EC0E9450
:10022600AE01C5010E94D50280910C2890910D283F
:100236000E94FB025C018AEC0E94AE01C5010E948D
:10024600D5021092002810920128F801808980FDBD
:1002560010C00E94E40280E80E94AE018AE695E49E
:100266000E94D50280EC0E94AE018BE795E40E94C5
:10027600D50280910E28882309F478CF809104282E
:1002860090910528C816D90620F4C0900428D0906D
:10029600052880910428909105288E159F0520F445
:1002A600E0900428F0900528809102289091032878
:1002B6008115924009F05ACF109202281092032815
:1002C600EC0CFD1CF694E794E0920C28F0920D28B5
:0E02D60010920E28E82CF92CC12CD12C47CF09
:1002E4001F920F920FB60F9211242F933F934F93A7
:1002F4005F936F937F938F939F93AF93BF93EF938A
:10030400FF9381E0809353010E940903882399F0AD
:10031400E0E0F6E081E08387808991898093042876
:100324009093052880910228909103280196809348
:10033400022890930328FF91EF91BF91AF919F9171
:100344008F917F916F915F914F913F912F910F907A
:080354000FBE0F901F901895D9
:10035C00E4E4F4E090819F70282F207F922B90830F
:10036C0090819D7F908390819160908300C000C0AC
:10037C0090819E7F90833EED3A95F1F700002081AD
:10038C002F7030E1839FC0011124822B80838081E8
:10039C008160808300C000C080818E7F808382E872
:0A03AC0096E00197F1F700C00895F4
:1003B600E4E4F4E090819F70282F207F922B9083B5
:1003C60090819260908390819160908300C000C07C
:1003D60090819E7F90833EED3A95F1F70000208153
:1003E6002F7030E1839FC0011124822B808380818E
:1003F6008160808300C000C080818E7F808382E818
:0A04060096E00197F1F700C0089599
:10041000CF93DF9360917C006E7F8CE790E00E9429
:100420000303E0E6F0E0838186FDFDCFC0E6D0E087
:100430006C8D6B7F8CE790E00E9403036C8D616094
:100440008CE790E00E940303E0E4F1E081818111F8
:10045000FDCFE0E4F1E082E0878381E08583828B59
:0A04600089E1808BDF91CF910895B0
:10046A001F920F920FB60F9211248F93EF93FF935F
:10047A00E0EAF4E0818581878091500180FF06C01F
:10048A00E0E4F1E080898E7F808B0CC081E080936C
:10049A000E281092022810920328E0E4F1E08089E5
:1004AA008160808BFF91EF918F910F900FBE0F901B
:0404BA001F901895E2
:1004BE008FEF809340048AE191E40197F1F700C039
:1004CE0082E00E94AE0188E20E94AE018CE00E94A2
:1004DE00AE0186E00E94AE0181E00E94AE0182E88C
:0A04EE0096E00197F1F700C00895B1
:1004F800E0E8F4E08089887F808B80898460808B45
:100508008089877F808B80E28093A000E0E0F6E01E
:1005180083E0828381E0808388E0868380818260B3
:04052800808308952F
:10052C00BB27FB015527AA27880F991FAA1FA417C1
:10053C0010F0A41B83955051B9F7A05DAA3308F0B5
:10054C00A95DA193009779F7B111B1931192CB01E9
:04055C000C94C50234
:1005600052504D3A004144433A004F6E65436C6926
:10057000636B4F7074696D697A650050726573734F
:0A05800020746F2073746172740020
:10058A00DC01FC01672F71917723E1F7329704C0F0
:10059A007C916D9370836291AE17BF07C8F308957B
:1005AA00CF93DF93EC018881882331F021960E9452
:0E05BA00DB0189918111FBCFDF91CF91089574
:1005C80081E00E94AE0182E896E00197F1F700C051
:0805D80080E80E94AE010895C5
:1005E000BB274A3031F4992322F4BDE290958195DE
:0605F0009F4F0C949702DE
:1005F6004AE066E078E20E94F00286E098E208951A
:0C060600DC0128ED209334006C93089573
:0806120080910B068170089530
:04061A000C9400003C
:02061E002701B2
:00000001FF
